:020000040000FA
:1000000080D5002041D20100595602002DD20100B6
:100010002DD201002DD201002DD2010000000000E0
:10002000000000000000000000000000A9D3010053
:100030002DD201000000000049D301002DD20100A3
:1000400069D50100B169020069D5010069D50100D7
:1000500069D5010069D5010069D5010069D50100A4
:10006000C769020069D5010069D501009B690200DA
:1000700069D5010069D5010069D5010069D5010084
:1000800069D5010069D5010069D5010069D5010074
:1000900069D5010069D5010069D5010069D5010064
:1000A00069D5010069D5010069D5010069D5010054
:1000B00069D5010069D5010069D5010069D5010044
:1000C00069D5010069D5010069D5010069D5010034
:1000D00069D5010069D5010069D5010069D5010024
:1000E00069D5010069D5010069D5010069D5010014
:1000F00069D5010069D5010069D5010069D5010004
:10010000074B1B78002B4FF0000383600360054B07
:10011000436014BF02220122FF23C27103727047A1
:10012000F809002028010800064B074A9B78026066
:100130004FF416728280C371082200238271037209
:10014000704700BFF80900207DC00100064B074A38
:10015000DB7802604FF434728280C371082200237E
:1001600082710372704700BFF809002087BE01004A
:10017000064B074A1B7902604FF4B4728280C37148
:100180000822FF2382710372704700BFF809002024
:1001900043BA01002DE9F341C41D002824F00704EF
:1001A000064614BF2046002000F0E2FF071E04DAD6
:1001B0006FF00B0002B0BDE8F0810EB9FC42F7D43D
:1001C000364D698928896B7B2A7B0331033089B2DC
:1001D00080B218F05CF80028EADBA978EB783C44A0
:1001E0000334002E194424F0030400FB01F114BF72
:1001F0002046002001F048F920440EB90028D7DB42
:100200002B790446B3B1697D19446B791944FF29F0
:10021000CEDC0330002E20F0030414BF2046002063
:100220002A8AC9B201F0A0F90028C1DB04440EB942
:10023000002CBDDB012000F091FFC8B1A97BB9B152
:1002400095F82C300734002B15BF402325234FF49D
:100250008172282224F00704002E14BF20460020BB
:1002600007F078F80028A3DB04440EB9002C9FDBCC
:10027000AB7CE3B12B799BB10734002E24F007044B
:1002800014BF20460020A97C0DF0A2FB00288FDBC4
:10029000044466B9002C0ADA8AE700BFF809002096
:1002A000012000F05BFF10B1AB7B002BE4D1724B5F
:1002B0001B6893B1A97981B10334002E24F00304A3
:1002C00014BF20460020EA7C98470028FFF670AF54
:1002D000044416B9002CFFF66BAF684B1B688BB15A
:1002E000297D79B10334002E24F0030414BF204685
:1002F000002098470028FFF65BAF044416B9002C95
:10030000FFF656AF5E4B1F68AFB1697D99B10334FC
:10031000002E2B7E009324F0030414BF20460020FF
:10032000EB7DAA7DB8470028FFF642AF044416B91A
:10033000002CFFF63DAF072000F010FF98B1A9791F
:1003400089B10334002E24F0030414BF204600209A
:10035000AA7E01F0F7F90028FFF62AAF044416B987
:10036000002CFFF625AF95F82500B6FA86F77F0931
:10037000A0B1EB7F297F033424F00704194444F033
:1003800004043B462246C9B201F01EFA0028FFF6DB
:100390000FAF044416B9002CFFF60AAF95F82610EB
:1003A000002959D00734002E24F0070814BF404616
:1003B00000202A8D17F080FF041EFFF6F9AE44449A
:1003C00016B9002CFFF6F4AE1EB1298D404613F08D
:1003D000A3F995F82010002940D095F82430002B7F
:1003E0003CD06A8C0734002E24F0070802F1240266
:1003F00014BF4046002092B217F05EFF041EFFF6C5
:10040000D7AE444416B9002CFFF6D2AEAB7F297F9D
:1004100095F82400033424F00704194444F004043C
:100420003B462246C9B201F0C1F90028FFF6C0AE32
:10043000044416B9002CFFF6BBAE3EB16A8C95F8A9
:100440002010083292B2404613F06CF92B6B5BB16E
:1004500076B12C630020ADE68846B5E7002EF5D0D6
:10046000002211461046EFE7002EF3D12046A1E608
:100470002834FBD59CE600BF640000206800002003
:100480006C0000201FB572B6184B5D6BE5B9BFF369
:100490004F8F1749174BCA6802F4E0621343CB60D1
:1004A000BFF34F8F00BFFDE7B2FBF6F2DCB20133C2
:1004B000002AF9D104F110036B4403F80C2C0A2232
:1004C00034B901A8A847E2E7024600230A26EDE76F
:1004D000631E04AEDCB256FA83F3B0FBF2F602FB05
:1004E0001600303003F80C0C3046E9E7F80900201C
:1004F00000ED00E00400FA0513B5114C637B8DF8A4
:100500000130237B8DF800306389ADF804306846F4
:100510002389ADF802300AF08BFF18B1E8219C2046
:10052000FFF7B0FF207E0AF0E7FF08B1EB21F6E706
:10053000E07D0AF0DBFF08B1EC21F0E702B010BD6E
:10054000F809002038B5054600283ED016F0A8FD71
:1005500010B94FF0FF3038BD13F05CFDB0F5FA7FF5
:10056000F7D81C4C1C486563002500F071FD2A2259
:100570002946A01C84F83850257084F82C50256337
:1005800017F04EF91B222281628140F2032240F2D1
:100590000113A28103226380A27301231F2223710E
:1005A0002282A3764FF40272F7236282638444F6B8
:1005B0000112FB23E2822385EFF3108472B601F06F
:1005C00013F92CB962B62046C5E76FF01500C2E7F3
:1005D0002846C0E7F8090020F904000038B51446A1
:1005E000002840F0B9805E4D95F83830032B00F0BC
:1005F000B080B1B112B96FF0150038BD01391429BE
:1006000000F2AA80DFE801F00B1C1F345E67853A18
:100610006A6D7F404654598B8E9C9FA2940013783C
:10062000AB700020FFF7B6FD0028B7BF01230223FF
:1006300085F838306FF00B00A8BF85F83830DCE75C
:100640001378EB70EDE71379002BD4D05379002B9E
:10065000D1D01288FB2ACED81A2A6388CBD91B3B6B
:10066000E02BC8D82368AB603E4BA2889A80D8E7BD
:1006700013786A799342BED32B71D2E713782A7923
:100680009342B8D86B71CCE713782A799342B2D8E9
:100690006B75C6E71378002BADD05378013BDBB206
:1006A000F82BA8D81388EB822F4B92789A70B8E772
:1006B0001078687610F0BCFFB3E71378002B9AD05F
:1006C000AB76AEE7012000F049FD237808B1012B9D
:1006D00091D9AB73A5E713882B82A2E71378AB718E
:1006E0009FE7072000F03AFD10B92378012B82D94B
:1006F000072000F033FD18B12378002B3FF47BAFC7
:100700002378EB748DE71378082B3FF674AF2B75C5
:1007100087E71388FF2B3FF66EAFAB7481E7137842
:10072000EB767EE713780E2B3FF665AF2B7778E7F5
:1007300023680E4A2B62636853602389138170E734
:1007400013786B776DE71378EB776AE71378AB77FD
:1007500067E74FF0FF3050E76FF02C004DE700BF28
:10076000F8090020000A00200E0A0020180A0020C4
:10077000F8B50D46064630B329B311F0070422D16F
:10078000124F97F83830012B02D16FF00B00F8BDF3
:10079000032B02D14FF0FF30F9E700F0E7F8002813
:1007A000F8D02846FFF7F6FC0028EEDB1BF035FDFD
:1007B0003046396B0AF078FFFFF79EFE032387F877
:1007C00038302046E3E76FF01500E0E7F809002035
:1007D00010B5074C94F83830032B03D10AF080FF92
:1007E0000CF0FCF817F0B0FE002084F8380010BDC3
:1007F000F809002050B1074B03F1140253F8041B11
:1008000040F8041B9342F9D1002070476FF01500A7
:10081000704700BF4078020010B5074B93F838408E
:100820003CB90AF0D3FE0320044900F08FFC2046B7
:1008300010BD4FF0FF30FBE7F80900207101000008
:1008400010B5074B93F838403CB90AF0D3FE0220AC
:10085000044900F07BFC204610BD4FF0FF30FBE761
:10086000F80900204D01000008B50C4B93F8382022
:100870008AB993F82C305BB10AF0FAFE08490120DE
:1008800000F064FC0020074900F060FC002008BD77
:100890000AF0D2FEF2E74FF0FF30F8E7F809002047
:1008A000010100002901000010B5054B93F8384004
:1008B0001CB90AF03DFE204610BD4FF0FF30FBE7AB
:1008C000F809002010B5054B93F838401CB90AF020
:1008D00021FE204610BD4FF0FF30FBE7F809002055
:1008E00010B5054B93F838401CB918F098FF204616
:1008F00010BD4FF0FF30FBE7F809002010B5054BA5
:1009000093F838401CB918F08DFF204610BD4FF009
:10091000FF30FBE7F809002010B5054B93F838408D
:100920001CB918F082FF204610BD4FF0FF30FBE7E6
:10093000F809002010B5054B93F838401CB918F0A1
:1009400076FF204610BD4FF0FF30FBE7F80900208E
:10095000024B02681A600020704700BF340A002072
:10096000014B1B68184700BF340A0020024B18686F
:10097000003818BF01207047340A0020F7B52E4E0A
:100980000446071D2C4837600CF048F8022805463D
:1009900006D12949204617F0B8F8284603B0F0BD23
:1009A000042842D13378092B0AD0262B1ED0314699
:1009B000204600F043F8B0F5817F2DD3722112E07C
:1009C00005213E2017F074F80028F0D1F378327931
:1009D00001A943EA02236846ADF8003017F032FA65
:1009E0000028CFD053210820FFF74CFD1A213E20CC
:1009F00017F05EF80028DAD17368C3F30F23ADF85F
:100A000004306946112301A88DF8063017F03CFA2E
:100A10000028B7D06521E6E70028B3D0A178207878
:100A200017F046F80028B8D1ACE70828B5D102493C
:100A3000204617F099F8B0E7380A00202DE9F8436E
:100A40000B78013B05460C46832B00F29882DFE8C9
:100A500013F09A009E00A200530196021B0121018F
:100A600027012D0133013701390149014F0184006C
:100A70009602A7009602AB003D0143015D016301B0
:100A800057019602690196027C01AC01B201B801DE
:100A90009602BE01CA01D0019602FD010B0233028B
:100AA000110225022D0217021F026E027402820239
:100AB000880239023F025D024502960296029602C2
:100AC0009602960296029602960296029602960266
:100AD0009602960296029602960296029602960256
:100AE0009602960296029602960296029602960246
:100AF0009602960296029602960296029602960236
:100B00009602960296029602960296029602960225
:100B10009602960296029602960296029602960215
:100B20009602960296029602960296029602960205
:100B300096029602960296029602960296029602F5
:100B400096029602960296029602960296029602E5
:100B5000960296024B02510257020E23B1F803206F
:100B60000B7042F283039A4209D1062363706678C0
:100B7000023632462146284616F0BEFE5AE035219E
:100B8000C720FFF77FFC0C230B700823EEE71A2326
:100B90000B700123EAE73E230B700223A370E6E704
:100BA0003E230B700B23F9E7292000F041FA28B10E
:100BB0003E232370222363702923EFE70A2000F0ED
:100BC00037FA3E2305F1080204F108012B70A0B3A7
:100BD0000A23AB70E378EB70A3882B71A3881B0A00
:100BE0006B71A379AB71E379EB71A368AB608B8810
:100BF0009380D4F80E30C5F80E30638A6B82636937
:100C00006B61238B2B83638BAB76638B1B0AEB7639
:100C1000A38B2B77A38B1B0A6B77E38BAB77E38BD1
:100C20001B0AEB7794F8203085F820301F226A7079
:100C3000023296B23046BDE8F8830123AB70E37808
:100C4000EB70A3882B71A3881B0A6B71A379AB711E
:100C5000E37903F00103EB71A368AB608B889380A9
:100C6000638BAB73638B1B0AEB73A38B2B74A38B0C
:100C70001B0A6B74E38BAB74E38B1B0AEB7494F865
:100C800020302B751322D2E73E230B7004234B70C8
:100C9000142383E73E230B700C234B7004237DE762
:100CA0003E230B700A234B70032377E73E230B7020
:100CB0000D234B70052371E705232370042355E7AB
:100CC0000823FAE730230B7003234FE73E230B7012
:100CD0000B234B70072361E73E230B7006234B70F9
:100CE0000C235BE713230B708B789B0001333DE7EC
:100CF00057230B70022339E73E230B700D234DE77A
:100D00003E230B7001234B70112347E73E230B70EA
:100D100006234B70122341E73E230B7009234B70CF
:100D200013233BE73E230370242000F081F90028C1
:100D300015BF24230E2313260F263246AB70A11CA9
:100D4000E81C16F0D9FD721C71E73E2303702520C4
:100D500000F06EF9C0B12523AB70D4F80230C5F8AD
:100D60000330D4F80630C5F807306389A5F80B3096
:100D70000A26F01CE27A04F10C01284416F0BCFDAE
:100D8000E27A0132324452E70F23AB706388A5F850
:100D9000033023796B716379AB71A379EB71A37A1B
:100DA0002B72E37A6B720726E3E73E230B70032373
:100DB0004B701023F2E63E230B7005234B7020236B
:100DC000ECE63E230B7009234B702123E6E63E231D
:100DD0000370262000F02CF9002815BF26231823C5
:100DE00017261326A9E73E230B7004234B702723F5
:100DF000D4E63E230370282383708146D1F8023065
:100E000049F8033F4FF000084646AA795FFA88F395
:100E10009A4205D8721D92B2002A3FF4A8AE06E7A6
:100E2000B21D331DA118A25849F8032009EB030095
:100E30008B88838047793A460637063106303E4430
:100E400016F05AFDB6B208F10108DEE73E230B703A
:100E50002A2000F0EDF818B12B2363702A239DE6B9
:100E60001D236370192399E63E230B7007234B70F3
:100E70001A2393E63E230B7014234B7022238DE636
:100E80003E230B700B7C5B000F334B701D2385E6FC
:100E90003E230B7003234B701E237FE63E230B7013
:100EA0000B7D5B0013334B701B2377E63E230B70E7
:100EB00003234B701C2371E63E230B7005234B70FC
:100EC0001F236BE6FF230B700B234B70A22365E6F9
:100ED000FF230B7005234B70A3235FE6FF230B70EA
:100EE0000D234B70802359E6FF230B700D234B70AD
:100EF000822353E6FF230B7002234B7083234DE6BE
:100F0000FF230B7004234B70842347E6FF230370F9
:100F100081238370D1F80330C21C03F1280153F8F8
:100F2000040B42F8040B8B42F9D129227FE63E23C1
:100F30000B700C234B70232330E6124B1B78002BD5
:100F400014BFFF233E230B704FF00E034B7014BFF2
:100F50008523372322E63E230B700A234B7035236B
:100F60001CE6084B1B78002B14BFFF233E230B709D
:100F70004FF0FE034B7014BF86232B230EE640F286
:100F80006221FDE53C0B0020074B4FF0FF3141F69D
:100F9000FF72C3E9001205490022C1E900221F21A6
:100FA000C3E90212704700BF00000020400B002080
:100FB0003F280CD801380B4BC0F3421200F01F0041
:100FC00053F8223023FA00F000F001007047FF28A8
:100FD00006D04038C0F34212034B00F01F00EFE789
:100FE0000120704700000020400B00200146074B05
:100FF000006849681A4603C240F48C221A6041F026
:10100000107242F4FF625A60704700BF0000002077
:101010000246024B0068516803C37047400B002032
:101020000246024B0068516803C370470800002065
:101030000138064BC0F3421203EB820300F01F009D
:101040009B6823FA00F000F00100704700000020C8
:10105000014B1860704700BF480B002010B5FFF728
:1010600093FF17F0F3FD034B1B68044603B1984749
:10107000204610BD480B00200B880288F0B5C3F352
:101080000E049EB204F11803C57CC35A02352A44EB
:101090002B4497B213FA82F3013B4288B3FBF7F378
:1010A00013FB07439BB29A42044A93BF22EA06030A
:1010B000324013439BB20B80F0BD00BF0080FFFFA6
:1010C0004A1E062A08B50346084604D84FF4D171D3
:1010D0001520FFF7D7F9094A914202D940F2A3112E
:1010E000F6E711B903B1196008BD2BB11B680022E6
:1010F000C3E901211A1D1A600430F5E7FAFFFF7FEA
:1011000010B5114B00EB41041A786389B3FBF2F37D
:1011100003FB0223013A1A44B2F5706F027928BF2B
:1011200000231A448378B2FBF3F0194403FB102028
:10113000091AB1FBF3F003FB101313446FEA4343A6
:101140006FEA5343638110BD4C0B0020024B03EB4D
:1011500080035960704700BF4C0B0020034B03EB2A
:1011600080035868003818BF012070474C0B0020DE
:101170002DE9F04F10F0070A85B0054604D040F283
:1011800061111720FFF77EF9554F07F14C06B14664
:101190000446B0464FF0010B57F8043B8DF80BA006
:1011A0003BB101A898479DF80A30082B01D9E821E6
:1011B000E7E79DF80B1081BB05B13160B94506F139
:1011C0000406E9D12DB3DFF81CE100238EF80030CE
:1011D0001E46122258F82200013A60B190F804A08D
:1011E0008178BAF1FF0F66D14FF000078E42077188
:1011F0003CBFCEB20123511CECD10BB18EF8006084
:10120000122640F6FF6A58F82670002F65D1013E7D
:10121000F9D2601B05B0BDE8F08F9DF80AC0BCF1A3
:10122000020FE64601F1050238BF4FF0020E0EF143
:10123000FF3004EB42040444CEF100002040BDF82E
:1012400008406444013CCCF1000C04EA0C04B4F501
:10125000803F4FEA420301D3F82192E775B1C31AE8
:10126000336099701C8083F803B09DF80C201A71CC
:10127000019A1A814FEA124CA3F806C004FB01043C
:101280009CE758F82C90B9F1000F06D099F804B0FB
:10129000D34504BF99F802904F440CF1FF3CBCF1D8
:1012A000000FEEDA3944FF29A0D90BB18EF80060A7
:1012B00040F2271165E794460027F0E707EB41036A
:1012C0003846A3F80AA0FFF71BFF09F10109BB7814
:1012D0005FFA89F18B42F1D899E74FF00009F6E700
:1012E000500B00204C0B0020F8B54FF6FF73038025
:1012F000184B03EB81030546186DB8B18678037966
:10130000B3FBF6F206FB1233DBB219460A1D00EB03
:101310004202B2F902705488002F09DB0131B1FB9F
:10132000F6F206FB1211C9B28B42EFD10020F8BDD4
:10133000FF29FBD0C4F30E03C4782B8024B94FF4EB
:10134000D5711720FFF79EF85380BDE8F84016F0DE
:101350007DBF00BF4C0B00201D4B03EB810370B51C
:101360001C6D054644B3030404D54FF4DC7117200B
:10137000FFF788F80146204616F04AFFFF2801468D
:1013800004D02046BDE8704016F060BFA078B5FBE1
:10139000F0F300FB1353DBB219460A1D04EB4206BF
:1013A000B6F90260002E09DB0131B1FBF0F200FB5F
:1013B0001211C9B28B42F0D1002070BDFF29FBD0C1
:1013C0008B4204EB42021CBF0023E3705580D8E738
:1013D0004C0B0020094B03EB810310B51C6D01463B
:1013E000204616F015FFFF28014604D02046BDE830
:1013F000104016F02BBF002010BD00BF4C0B00208A
:10140000F8B5104B03EB810307461C6D01462046DF
:1014100016F0FEFEFF28054611D0E688238953EA20
:10142000064606D00146204616F010FF0146384613
:10143000B04720462946FFF763FE0020F8BD05208F
:10144000FCE700BF4C0B002038B50E4B827903EB54
:1014500082030446186D08B9052038BD8278E17909
:101460009142F9D24B1CE37100EB41035D89B3F962
:101470000A30002BF3DBA58016F0E8FE2060002088
:10148000EBE700BF4C0B002070B5044610F00300E2
:101490000E4603D04E211820FEF7F4FFFFF710FE92
:1014A000054624B1034831460460FFF709FE28468B
:1014B00070BD00BFE80B00202DE9F14FDFF870B0E0
:1014C0009DF828A09DF82C901E46DBF800300746BA
:1014D0000D4690461BB960211820FEF7D3FF5246F7
:1014E0000921404616F016FD4A4684B209213046CD
:1014F00016F010FD14FA80F1DBF8000016F05DFE26
:10150000386018B9286001B0BDE8F08F04442C6041
:10151000386853464146092216F0C0FC28684B46FD
:101520000922314601B0BDE8F04F16F0B7BC00BF4C
:10153000E80B002070B50E46044616F0FEFC05468A
:10154000304616F0FAFC044B2A1821461868BDE80C
:10155000704016F056BE00BFE80B0020014B186823
:1015600016F01FBEE80B00201F2AF8B504461346EC
:101570000ED89200033222F00303B3F5803F2DD240
:10158000184DACB1A00710D05F210920FEF77AFFFB
:10159000FF2B4FEA420204D9FF339A42A8BF1A46F2
:1015A000E8E77C2AB8BF7C22E4E729706C602B81D5
:1015B00022F0030201EB81031204D80001276B68BB
:1015C000120C0025EEB28E4200D3F8BD14B12618DD
:1015D0001F705E60104401352833F3E74FF0FF3091
:1015E000F3E700BFEC0B002038B5144A14785368B9
:1015F0000021C8B2844203D8AB210920FEF742FF84
:101600001846013105782833002DF2D00021817071
:1016100001241289447044688161C161920800F11B
:101620002001051D21F8022B994245F8044B144472
:10163000F8D100234361037038BD00BFEC0B0020DC
:101640000A4B1B89B3F5FF7F4FEA930006D25A0875
:101650009B1A9BB2984238BF18467047B3F5EE6F9D
:1016600001D8FF22F4E740F27263F3E7EC0B0020AD
:101670002DE9F8434B7880460C4602F0040602F050
:10168000FB07D3B1DFB12E4BD4F804901D89B7BB53
:1016900001236370AD08A761E76104F120034A46A6
:1016A000211D04F1280023F8025B984241F8042B25
:1016B0002A44F8D10023636101E0002FE3D0FF2327
:1016C000A370002E18BF0226A3191B7D032B03D184
:1016D000022F1CBF0136F6B2A31901221A7506F1BA
:1016E0000C0204EB8606002324F812307268A37003
:1016F000C8F80020A8F804304046BDE8F88300216F
:1017000014226170A01816F08BF8B5F5FF7F0FD288
:101710006B08ED1AADB209EB0502C4F804902584FC
:10172000A2606384C4F80C90A5842261E384C6E7B8
:10173000B5F5EE6F4FF0FF03EBD940F27265EAE7C3
:10174000EC0B00202DE9F84305460C46F720052157
:10175000914616F0DFFB061E22DB1DB914FB06F0D6
:10176000BDE8F88315F0030703D098211920FEF790
:1017700089FEDFF83480C8F81050A8F81460A5B2CC
:10178000BBB29D42EAD9B8F814C0D8F810004B4655
:1017900007FB0C000522F72116F080FB0137EFE76D
:1017A0004FF0FF30DCE700BF000C002007B5CDE9AB
:1017B00000230B4603490246081D16F09FFE03B0A6
:1017C0005DF804FB180C002013B5064CCDE900238E
:1017D0000B46024604F1080104F10C0016F08EFEDF
:1017E00002B010BD180C0020134B012200214FF055
:1017F000FF309A60C3F80012C3F80803C3F800155D
:10180000C3F804259A60C3F80803C3F80015C3F8A9
:1018100004250A490A4A03F580334FF40040C3F80F
:101820000825C1F88000BFF34F8FBFF36F8FC1F859
:101830008001C3F80825704700F0004000E100E097
:101840000000F63F8C46342300B50CF8033B054BF3
:101850008E4607CBCEF80300CCF80410CCF8082055
:101860005DF804FB340C002010B5154C10F0E6FFB9
:1018700010F084F8636A608C00219847237E9BB93E
:10188000104B628C93E803000CF02CF9E36A188883
:101890000CF052F8636B94F8301094F831009847CC
:1018A000002384F8383010BD94E8070004F10C03DD
:1018B00083E80700044904F1190019F003F8DFE791
:1018C000280C0020500C002045180000034B93F812
:1018D000383003B97047FFF7C7BF00BF280C00209E
:1018E00008B54FF48E610620FEF7CCFD08B5094B14
:1018F00093F83820022A07D1DA7A42F00102DA722C
:10190000BDE80840FFF7B0BF40F231212720FEF7C5
:10191000B9FD00BF280C002070B5354E96F8283070
:1019200005460BB1012825D001292AD8336C284659
:101930009847044628B396F8303013BB96F8283001
:1019400013B31DBB96F84420D106C2F300152DD465
:10195000B26CF16C1278C2F3001201B382F0010490
:10196000BBB1738F9A0715D5F36BDC78023C18BFB7
:10197000012407E0738F1807D6D5F36BDB78022BB1
:10198000D2D10124204670BD012DDBD00024204699
:1019900070BD738F002BF4D1002DF3D0F6E7B6F8AD
:1019A00050100029DAD0002BF3D0DAE7F16B0A7877
:1019B00002F00302032A09D1CA78022A15D0706DF9
:1019C00016F03BFB96F828300546C1E7706D16F01F
:1019D00034FB38B90AF0B4F880F0010596F82830E5
:1019E000EDB2B5E796F82830B2E70025B0E700BFC2
:1019F000280C002070B5294CE56AA26C95F894304B
:101A0000A265064694F85C000BB10430C0B295F8AC
:101A100075100EB9FF2837D010F0FCFB95F8943004
:101A200063B3206E11F01CF894F82830D5F8F0203C
:101A3000216EA06D6267003B18BF012384F87C30E3
:101A4000D5F8F430A3670FF03DFF5EB995F8753017
:101A50002A8F033B012B94BF28200020104480B222
:101A600011F0A8F8A88E10F051FB95F87410002022
:101A700011F008F9022384F8383070BDA06D10F021
:101A8000EFFF0FF07BFFE0E795F874208A42C7D0A4
:101A900010F0C0FB95F89430C2E700BF280C00207E
:101AA0002DE9F0473C4C94F83830012B82B06CD1D2
:101AB000E56A5FFA83F9E36B95F884201F7893F861
:101AC00001A00646884607F0030772B1638F002124
:101AD00043F00403638785F88410636A0420984701
:101AE00094F828300BB185F88690032F33D0BAF1E3
:101AF000000F2CD0022385F88A3095F89430EBB192
:101B0000E36A94F8282093F87530003A18BF012250
:101B1000013BDBB284F87C20D5F8F0206267032B10
:101B2000D5F8F420A26794F85C2033D81B49002034
:101B3000CB5C00901A4901200FF04AFE16B9B8F1AB
:101B4000000F17D102B0BDE8F047FFF78DBE0123AB
:101B500085F88A30D1E795F88A303BB9638FE16B1D
:101B600043F0020363870220636A9847032385F8E2
:101B70008A30C2E731463046FFF7CEFE0028E1D179
:101B800002B0BDE8F047FFF735BF40F2DC41272047
:101B9000FEF778FCFFF7A4FE280C00205478020022
:101BA0008C0C002070B5804EF46A96F85C3094F886
:101BB000942082B000218DF805100AB10433DBB205
:101BC00094F8741010B9FF2B00F0B280FF2010F0D1
:101BD00021FB94F88A30032B00F2E180DFE803F068
:101BE000021C746496F8BA30ADF806306F48A4F859
:101BF000643009F07FFF002840F0A080706D0DF187
:101C000005020DF1060116F0BFF9F06320B194F85A
:101C1000CF30002B00F0A7806548F06394F88B204C
:101C20000378D20003F0030502F0080203F0F30387
:101C3000134394F88C20920002F00402134303F043
:101C4000EF03032D037051D1C278022A06D0706DC4
:101C500016F0F3F9002851D1F06B0378037094F873
:101C6000933013B14378002B4DD110F0F9FE0FF0F3
:101C700085FE0AF0D5FF08B1032D70D0E08E10F07C
:101C800045FA94F87510012010F0FCFFF36B494AF7
:101C900018889978A6F84400012386F8BC30917022
:101CA00086F8383002B070BD404809F023FF0028A4
:101CB00070D0F06BC3781B2B14D1012104F11000FC
:101CC00010F0E6FAF06B0DE0B4F86430706DADF82A
:101CD00006300DF105020DF1060116F055F9F0631D
:101CE000002852D0012386F8BB3097E7706D16F0BC
:101CF000A4F918B909F024FF0028ADD1F06B0378DE
:101D000043F01003AAE7306E10F0AAFE96F82830D0
:101D1000D4F8E820F16B306E7267B3FA83F35B0995
:101D200086F87C30D4F8EC30B3670FF0CBFDA0E739
:101D300094F875308B427FF449AF4AE7738FF16BAB
:101D4000726A43F480734FF4807073879047F06B2E
:101D5000012184F88510C3781B2BC3D1AEE7012085
:101D600012F00CFB8AE79DF8053033B1BDF8062070
:101D70004270012386F8BB3050E703808370F06B1C
:101D8000012118F0E9FCF06BF0E740F2D1212720A7
:101D9000FEF778FB40F2DB212720FEF773FB40F2D1
:101DA000E9212720FEF76EFB280C0020640C0020A0
:101DB000B00C00206C0C002070B50D4B0D4C0E4A81
:101DC0001A6094F838301BB1ED212720FEF75AFB3A
:101DD00003F0FF0206460D4622760BF07BFE012142
:101DE00004F1880018F0B8FCA664256670BD00BF39
:101DF00070000020280C00206427000010B5074A5E
:101E000092F8383013B10C24204610BD03F0FF04C3
:101E100014760BF05FFE204610BD00BF280C00209A
:101E2000024B012283F8BD20704700BF280C002020
:101E3000F0B5BB4C85B002AD85E8030094F83800DE
:101E40000A9E002840F08281002A00F07F81002B4A
:101E500000F07C81002E00F0798100F0FF0184F811
:101E6000BD1084F8301084F8BE1084F8311084F866
:101E7000BC1084F8BB106187618495E8030023647B
:101E800004F1280383E80300E56A6262666310F0E8
:101E90005FFA0FF073FD95F97C0010F087FBA86ADC
:101EA00010F0C2FD286A10F087FB95F8A40010F02E
:101EB0008DFB94F82800002800F0EF80E36A93F887
:101EC000C231002B40F0C18095F875209D21012082
:101ED00010F05CFC934B944E186810F0ABFD6B69EE
:101EE000D5F8FC10D5F80021D5F8F8006365D5F8D1
:101EF0000431AF69C4F8C0700FC6E36AD5F80811A1
:101F000093F88E20C4F87D10D5F80C11C6F80D108A
:101F1000A2F12601012910D993F88F1026290CD09F
:101F2000213A012A40F2E680242900F0C68093F885
:101F30007460032E08BF042616E094F82820002AB7
:101F40007CD093F89A2293F874606AB1F31E012B47
:101F500040F2DD80D31E012B40F2D980012E03D048
:101F6000012A14BF0226012605F13C0731463846F6
:101F700018F067FD314618F070F8B5F8483095F85C
:101F800075100246934228BF1346384684F8BA308B
:101F900018F01DFD95F8751095F89470B5F850601F
:101FA000042908BF032118F058F80FB9043080B293
:101FB000B04228BF3046C6B284F8C4600AF030FE92
:101FC000002863D194F8280084F85C6000283FD191
:101FD00095F89330EBB195F8743095F87E10D5F8FC
:101FE000E8206267013B0029DBB2D5F8EC20A2674C
:101FF0004FF0010118BF0420032B84F87C1000F27D
:10200000AA804A4A0021D35C0091FB2246490FF086
:10201000DFFB0120FFF7C6FD0023C4E90033A36006
:10202000AB6F2988B5F8880095F8A42060802180DE
:1020300022710BB101221A6005B0F0BD93F80A229B
:1020400093F87460002A81D18EE710F06FF93BE7B6
:1020500095F89430B3B195F87530D5F8F020D5F8EF
:10206000F410A167013BDBB20120032B626784F807
:102070007C0070D82D49CB5C0021009132462A4962
:102080000FF0A6FB0120FFF7B5FCC5E70AF0CEFD77
:10209000B04238BF3046C6B294E795F87420234B5F
:1020A00003EB42039988224B01F5FA71A3FB01313E
:1020B00089096E3110F06AFB0CE794F82820002A99
:1020C0003FF435AF93F82E2193F86D1093F87460B8
:1020D00002EA01035A071AD413F001022AD19B071E
:1020E0007FF542AFF31EDBB2012B10D9012E18BFD2
:1020F000022639E72429E0D094F82820002A3FF46A
:1021000016AF93F82E2193F87460500701D504267A
:102110002AE712F0010313D191077FF525AFE1E71C
:10212000280C0020700000208C0C00205478020045
:10213000D34D6210033E012E8CBF1646042613E7D2
:10214000033E012E8CBF1E4604260DE74FF4BE71E0
:102150002720FEF797F9FFF7C3FB00BF08B5124B26
:1021600093F8382092B193F8282022B993F83830A8
:10217000012B14D108BD93F83820022A0AD1DB6A5A
:10218000D3F8D801BDE8084010F0E0BCBDE8084035
:10219000FFF76ABB40F213212720FEF773F940F2E4
:1021A0000F212720FEF76EF9280C0020FFF75CBBFB
:1021B000014B1876704700BF280C0020014B93F8A4
:1021C000BC007047280C0020034B93F8BB0010B9EB
:1021D000588CC0F300307047280C0020024B588CFC
:1021E000C0F3C020704700BF280C0020014B93F8BB
:1021F000BE007047280C00202DE9F0433B4CA56D34
:10220000E76A95F8018010F0010983B00E4635D0D9
:102210000023800784F8C5301ED5E36C002B5AD00C
:10222000B4F8502018462946033215F065FB0DF12D
:10223000020201A9A065D4F8C00015F0A8FF01981A
:1022400015F08BFF012230604146D4F8C00015F034
:1022500033FFB9F1000F1BD0D7E93C3297F88C104F
:10226000013342F100020129C7E93C320CBF0023CF
:10227000012387F88C3003B0BDE8F08394F8C530B3
:10228000032B2DD8DFE803F024070202830718D4BC
:1022900003B0BDE8F0838207FAD5E36CDBB1B4F894
:1022A000502029460332184615F026FB0346D4F881
:1022B000C000A3650022414603B0BDE8F04315F01D
:1022C000FBBED4F8C00003B0BDE8F04315F05BBF1F
:1022D0008107DDD5A1E740F2CE412720FEF7D2F8F5
:1022E00040F27A412720FEF7CDF800BF280C0020ED
:1022F0002DE9F04FBC4C94F83820E66A85B00023F5
:10230000022ACDE9023340F01B82638C884613F029
:102310004001074606D1636A40209847638C43F02A
:1023200040036384A26D5578002F00F0A98092F8D5
:10233000009096F89430C9F3C00B002B40F05C81FC
:10234000A9B2A4F85010002940F065810023E3648D
:10235000638C96F88B10C9F3800243F400739142AA
:10236000638400F0F380D4F82CA09AF88A20DAB1C4
:10237000022A00F09C8194F8283000218AF88A1003
:1023800023B19AF88630002B40F087819AF8853087
:10239000002B40F064819AF88B30012B0CBF002396
:1023A00001238AF88B30638C96F88C2043F4006309
:1023B0005A4563844FF0000A09F0030900F0CE800B
:1023C0000AF02EFC0546002800F02F81B9F1030F1A
:1023D00000F03E8196F893304FF000094D46002BF7
:1023E0006CD1B8F1000F40F0908094F8BE1001203D
:1023F000FFF792FA002840F08880B9F1000F40F012
:10240000E680FFF7CFFBBAF1000F09D094F828302F
:10241000002B40F0D180B4F809300133A4F8093022
:10242000002F00F08880B4F8053000220133A4F8B2
:10243000053084F8BE206D480BF06CFA029830B17C
:1024400015F08BFEE16A002202720AF031FB039B59
:1024500033B1E16A00221A720C2203980AF0F6FAEC
:10246000002D6ED1638C1B0607D4636A2946802039
:102470009847638C43F08003638405B0BDE8F08F18
:1024800096F89420002A40F0CC8043F48063638463
:1024900094F8BE30013384F8BE3096F87530033BB3
:1024A000012B39D90AF0BCFB002835D14FF00009C7
:1024B0004D46CA4696F89330002B92D094F82830B7
:1024C00096F87E20B3FA83F35B0984F87C3096F8A3
:1024D0007430013B002ADBB2D6F8E820626718BFEF
:1024E0000420D6F8EC20A26708BF0020032B00F2DE
:1024F0002C813F4A3F49D35C00220092FB220FF01F
:1025000067F9B8F1000F3FF470AF10F00FFCB9F1AC
:10251000000F4BD1012576E7012011F02FFF0FF0BE
:1025200005FE0428C2D11B2D4FF0000994BF0025E1
:102530000125CA46BEE7B4F807300133A4F80730D6
:1025400079E7FFF791F905B0BDE8F08F96F88C2098
:102550005A45BA4609F003097FF432AFB9F1030FC7
:10256000D4F82CB063D143F480536384638FA16D9E
:1025700043F00103012063878BF88400636A984766
:102580009BF88C30013B18BF01238BF88C30002D59
:102590003FF416AFDBF8F0300133CBF8F030DBF866
:1025A000F43043F10003CBF8F43009E703A903202A
:1025B0004D46FFF721FE26E7B4F80530B4F80710C2
:1025C000B6F888200B4313433FF42AAF23E703A94F
:1025D0000120FFF711FE4046FFF7E4FA03A90220AD
:1025E000FFF70AFE0FE700BF280C0020500C002068
:1025F000547802008C0C00200FF0DCF900287FF4E6
:102600009FAE002D46D096F88C305B4500F084805C
:10261000A9B2A4F85010D4F8C00015F02FFDE06462
:1026200096E60FF007FA638C2FE7814642E7B9F18F
:10263000000FA5D0002D4CD19BF88C30013B18BF6A
:102640000123A9468BF88C300AF0EAFA002531E71D
:1026500001204FF0000911F091FE4D462AE70021BC
:102660008AF8851009F056FA0021002874D0638F8B
:1026700043F0080363870820636A9847DAF8E83074
:102680000133CAF8E830DAF8EC3043F10003CAF855
:10269000EC3080E6A4F8505058E6638F8AF8861034
:1026A00043F0100363871020636A98476EE6606DFD
:1026B00002A915F08CFC002849D0DAF8E830013383
:1026C000CAF8E830DAF8EC3043F10003CAF8EC302D
:1026D00051E643F4805363849BF894B00FF026FDD9
:1026E000042894F8C43007D1BBF1000F14BF1B229B
:1026F0001F22934228BF13469D4213D8E36C002B40
:102700003FF45EAE94F8BD30C3B1636A002120206F
:1027100098474FF0000997E7012384F83130FFF71D
:10272000A3F8AAE694F83030012043F0100384F8AF
:1027300030304FF0000911F021FE85E7B94683E7FC
:1027400040F25F512720FDF79DFEFFF7C9F840F2E8
:1027500014412720FDF796FE40F22B412720FDF77C
:1027600091FE00BFED180000F1220000A11A000048
:10277000CD18000008B540F2FB310620FDF782FEBF
:102780002DE9F843002800F0E1800446072900F213
:10279000D380DFE801F0AB2424A7D11F9ECD0146F2
:1027A000204619F058F9D4F8443100F1E5059D426E
:1027B00040F2C780E81A322838BF3220032114F0D3
:1027C000DBF8C4F844510646204619F00CFA002EF6
:1027D00000F09D802046BDE8F84319F005BA19F0D5
:1027E0007BF9D4F81421002305460E4684F84031C5
:1027F00084F84931BAB150EA010314D0CA00C300C9
:102800001B1A42EA507262EB0102D4F830115B18D5
:10281000D4F8341142EB0102D4E95401834272EB43
:102820000103C0F09180022304F5A07784F84831B9
:10283000384613F071FA002800F08C8094F860316B
:1028400003F0FF01002B6BD1D4E956026FF0004377
:102850009A4208BFB0F1FF3F13D02046D4E9549804
:1028600019F0F9F8D4F85831D4F85C21B3EB090326
:1028700000F1E50062EB08021B1A62F10002002A77
:102880004BDB94F81001394613F038FB00286BD06D
:10289000D4E95401D4E94A32834272EB01071FD2D2
:1028A00055EA06071CD0C01A61EB020133462A46DE
:1028B00014F0F8FE05FB01F3D4E94A2100FB0636CB
:1028C000A5FB00535519334443EB0103C4E94A53B4
:1028D00006E090F8100113F0F9F9002384F838317C
:1028E000BDE8F883BDE8F84310F034BA0CF0DAF92B
:1028F000D4F84401CB3813F06FFF80B3204619F0B1
:1029000029F900283FF44BAF204619F06CF9D4E9BF
:102910005423C4E94C23BDE8F88320460CF0CAF9DF
:1029200094F8100113F0D2F9002384F83831AFE79E
:10293000FF213020FDF7A6FD40F203113020FDF706
:10294000A1FDC4F84451DFE701236DE7E221302007
:10295000FDF798FD40F2A4613020FDF793FD40F2B1
:102960005D213020FDF78EFD4FF4D5613020FDF75D
:1029700089FD00BF2DE9F04F04468BB04FF00008F1
:10298000029390F875B0CDF818800E46154617F0F2
:1029900022F894F8C3310B2B00F21884BD4F37F89E
:1029A000139094F88F304844442B1FFA80F914D0C8
:1029B00094F88E20442A10D0A3F10E02B2FA82F2CB
:1029C00052090392002D40F0BD8294F80422032A9C
:1029D00000F00E830123049306E0002D00F08B80AD
:1029E0000123CDF810800393B4F85052B4F888A0B6
:1029F000751B2DB2A6EB0A0A002D0FFA8AFA04F510
:102A00000878C0F29582029BA34A127802F0FF0078
:102A10005AB9074694F80422032A00F2F383DFE848
:102A200012F041010001C7017300059311F0E6FAAD
:102A3000059B0028EDD0B4F8F021012A40F228834C
:102A400094F80422022A00F0238394F81A02002842
:102A500040F01E8394F87E20002ADAD194F8C32136
:102A60000B2A00F2B38337F8129094F8042209F588
:102A7000C869012A1FFA89F940F0608394F892200E
:102A8000032A40F09683D4F8FC01E76A07444946DC
:102A9000059311F077FA02463846D4F8F871C4F875
:102AA000F821D21BD4F80072494602FB07F711F057
:102AB00069FAD4F80822C4F80802801A0744494683
:102AC000E06911F05FFA94F87E20059B02B10230B4
:102AD000B4F8DC21D4F800125244C943521B0A4412
:102AE000D4F80C12C4F80C02401A00FB0277012241
:102AF00084F81A228EE794F80432032B00F07D82CA
:102B00000123CDE903336FE7E169029801FB05F288
:102B1000002800F01A82B4F8DC01002840F0158289
:102B200084F81B02D4F80CC20CFB152594F88E20F7
:102B30000695262A00F0AE8294F88F20262A00F00F
:102B4000A982002B3BD0D0BBD4E98E23D4F840120D
:102B5000D4F844E28A4273EB0E0380F0488394F881
:102B60007530DA1E012A40F2DC82184610F06CFB48
:102B7000DFF82891D4F8401200F5234E0EF1A10E93
:102B8000A9FB0E3ED4E98E2394F875008439A0F198
:102B9000030C8A1A1544BCF1010FA5EB9E1540F2F7
:102BA0002B8310F051FB00F2E731A9FB0131B4F89F
:102BB000DC01D4F80CC289092944103906918244F9
:102BC000ABF103030CFB0AFADBB20AF1300A012B6A
:102BD0004FEA4A0A40F2A282584610F035FB2F4BCA
:102BE00000F52340A130A3FB00304FEA901958466E
:102BF00010F022FB0AF17405274B4D44284458601D
:102C000094F87E30002B42D0254AE069514606AB4D
:102C100017F068FA204B84F81B02069A5868E1699D
:102C20002EE1D4F80C02E269D4F80832D4F800128C
:102C3000B4F8DC9194F875B0121A02FB05F5D4F8DB
:102C4000F82106953033CA4402FB0139C943258E69
:102C50008A44ABF1030300FB0A99012B4FEA4909AF
:102C600005F1740540F2B981584610F0EDFA0B4BAE
:102C700000F52340A130A3FB00304FEA901A5846DC
:102C800010F0DAFA4D44044B554428445860069A33
:102C90008CE000BF68780200F00C0020D34D621079
:102CA000F40C002094F8751094F8D60117F0FDF993
:102CB0000546E06A4946284411F064F94946C4F8DB
:102CC0000802E06911F05EF994F87E30002B40F0C4
:102CD000DD81C4F80C0207A908A810F02FF8079BA3
:102CE0000093D4E99201DDE9082314F0BFF894F8C9
:102CF000753005938146184610F0A6FA059BDFF85B
:102D0000E8A2033B00F55F40012B00F1410094BFB6
:102D100028210021AAFB003001EB90118031012213
:102D2000204617F0ECFED4F85432E26A94F87500AD
:102D30000693059210F088FA4AF2A13B5844AAFB88
:102D40000031069B059AA3F19400D4F80832104490
:102D5000C01A2844A0EB090003F1300994F875303B
:102D6000258EDA1EA0EB9110012A06904FEA490940
:102D700005F1960540F22E811846059310F064FA8D
:102D80008344AAFB0B3A059B4FEA9A1A184610F0A7
:102D900053FA4D44954B069A554428445860D4F84C
:102DA0005432D31AB3F5917FC0F01782E16967E01E
:102DB000E36AD4F8FC014946184411F0E3F84946A7
:102DC000C4F80802E06911F0DDF894F87E30002BB9
:102DD00040F05A8194F87590C4F80C02484610F0FF
:102DE00033FA814D00F55F40A9F10309B9F1010FF4
:102DF00000F14100A5FB003094BF2821002101EB28
:102E0000901180310122204617F079FEB4F8DC31B0
:102E1000002B00F0A280D4F8FC31E26AD4F808025A
:102E200094F875A013441B1AAAF103010693C9B2C2
:102E3000D4F8F831D4F80022B4F8309002FB03053E
:102E4000303501294FEA450509F1740940F2C8807F
:102E5000504610F0F9F9644B00F52340A130A3FB74
:102E600000304FEA901B504610F0E6F94D445F4B9E
:102E7000069AE1695D4428445860012384F80432CD
:102E8000D4F80C526FF4AD734D1B1D44D21BD4F813
:102E90004872D4F84C320692854228BF0546BA18CB
:102EA00043F10003C4F834320023C4F8D851C4F805
:102EB000302284F8203204F13C0017F086FDD4E97A
:102EC0008C230544C4E99223C4F82452A4F8506228
:102ED0000CF080FB20B1D4F824321E33C4F8243225
:102EE000B4F8C811039A8E1B002336B29E4284F8B0
:102EF0002832C4BF022384F82832002A40F0D6804A
:102F0000029A002A40F0D68094F80432002B40F058
:102F1000F28094F81C02414612F0F0FF002800F005
:102F20005781049B84F8183200200BB0BDE8F08F65
:102F3000D4E98E01002384F81B32C4E9920155467E
:102F4000012361E5CDF810804EE594F81B020028BE
:102F500000F0E180254B586892E7029B002B3FF47C
:102F60005AAFD4F8FC31E26A94F8750003EB020B17
:102F700010F06AF900F52340A130A5FB00304FEABC
:102F80009019D4F80802D4F8402294F875A0ABF157
:102F9000940BABEB000B9344AAF10301D4E98E230D
:102FA000C9B20129ABEB020B40F2C480504610F0CD
:102FB0004BF994F875A000F2E732A5FB0235AAF1AF
:102FC0000301D4F80802AD09C9B2ABEB09022A44E7
:102FD00006922DE74FF0650AD8E64FF0650A4EE6F7
:102FE0004FF0650B3FE700BFD34D6210F00C00209F
:102FF0000E2B18BF03957FF4EDACB4F89832B342B2
:103000007FF47EADB4F85232B4F8DC211344C4F836
:103010000032D4F80C32C4F8F831E369C4F8FC315A
:1030200020460DF08FF894F8AC32002B40F0A880C9
:10303000D4F8A052E269954204D0208819F0C9F86A
:10304000D4F8A02294F87E30002B00F08D8041F659
:103050004B539D4240F28D8000234FF09611238701
:10306000616384F87E30D4F89C32E362B4F89A321B
:103070002386D4F8A4326362022384F80432012345
:10308000CDE90333E261AFE40230A3E6023020E68B
:103090000027BFE4B4F89822B21A12043FF551ADEC
:1030A00094F89B22002A18BF93464AE5029A002A08
:1030B0003FF42FAFB4F8F021D2B1B4F8F20194F894
:1030C000F41100FB01118A4200F101007FF721AFEA
:1030D000002B3FF41EAF002384F82832A4F8F2013D
:1030E00009F0AAFD00F00700013084F8F40110E7B0
:1030F000A4F8F2210DE7E169D4F80C324046C91A70
:1031000016F07AFF80B200283FF403AF149B9BB106
:103110001880012009E7B4F8DC0103E54FF06509E8
:1031200065E5D4E98E23A1F1E90EAEEB020E3C2158
:10313000754441E53C2548E70120F6E6E069059342
:10314000494610F01FFF94F87E20059B02B1023023
:10315000B4F8DC71D4F80C22C4F80C0257447F1B7D
:10316000821A02FB07F7C2E441F64B518D423FF64B
:1031700078AF4FF04D13636300232387012370E77B
:10318000208819F023F868B3B4F89822B4F8A8128C
:10319000618694F87E30B4F8AA124281013A028224
:1031A0000022C2818181D4F8A022002B7FF454AF89
:1031B00057E794F8751094F8D601E76A059316F06E
:1031C00074FF059B0744D4F8FC0160E4FFF7D2FAD2
:1031D00040F293513020FDF755F940F2DE413020A6
:1031E000FDF750F940F23E713020FDF74BF940F207
:1031F00032513020FDF746F9B4F8DC01D4F80CC2A6
:103200003C21D9E440F24A513020FDF73BF900BFA0
:10321000F0B585B0002800F010810446072900F2BF
:10322000F380DFE811F09500080008007E00F1004F
:1032300083008B00ED0019F09BF8D4E98E23801AEF
:1032400061EB0301012871F10003C0F2FF806FF010
:103250000102002382428B41C0F20181E3690BB17C
:10326000B0FBF3F394F88F20442A00F09B800E2AE1
:1032700094F88E1000F096804339012940F2928034
:10328000B4F88810B4F816220B449BB2D11A090482
:1032900000F1C880531C9BB2A4F8163294F819327E
:1032A000B4F81612002B00F0B380B4F8C200B4F8E2
:1032B00088306D4FB4F852220344B4F8C000013B8B
:1032C0001B1A9EB23B680132A4F8522202AD53B1E0
:1032D000013989B2002220469847B4F816120144F9
:1032E00089B2A4F81612731A1B0462D40023009545
:1032F0001A462046FFF73EFB40B3012840F0A1806C
:10330000B4F81612B4F8C831CA1A10046ED4BDF855
:103310000830194489B23B68A4F81612002BD7D1A3
:10332000E1E705B0BDE8F0400FF014BD012011F059
:1033300025F805B0BDE8F040FEF738BF90F804323C
:10334000042B40F08880002380F8043205B0F0BDE3
:1033500090F81832D3B1B0F81622B0F888309A42FB
:1033600063D0D31AA0F8CE31A0F88820D4E98C23FA
:103370002046C4E98E230CF005FE94F8D331002BCF
:10338000E4D005B0BDE8F04018F0B2BDB0F814329A
:10339000B0F88810B0F81422A0F888205B1AA0F8C2
:1033A000CE31E3E7B4F81612013189B2A4F816124F
:1033B0007BE794F892200394002A0CBF3E22082257
:1033C000012384F8B12028468DF808300AF02EF841
:1033D000204618F08FFD002384F8043294F81C0274
:1033E00012F074FC202384F81C32AFE7BDF80820EB
:1033F000114489B2721A12F4004F18BF19468AE7B5
:10340000D6213020FDF73EF8DA213020FDF73AF8DA
:10341000B4F8CC318B427FF448AF013189B2A4F8C3
:10342000161242E701339BB236E7B0F8CC31A0F870
:1034300088309B1AA0F8CE3198E7AA213020FDF7FA
:1034400021F840F276613020FDF71CF840F21E6151
:103450003020FDF717F8D0213020FDF713F840F2A7
:103460001F613020FDF70EF8740000202DE9F043B5
:10347000D0F814310026D0E9548983B080F818615F
:1034800005460F4683F8D62180F838610121D0F82F
:10349000140108F07BFFD5F81441C4E98E8995F832
:1034A000103184F81C32C4E99289C4F8547284F84B
:1034B0000462A4F8506233460096324631462046F4
:1034C000FFF758FAD0B9012384F80432C4F8000297
:1034D000C4F8F801A4F81602A4F8140284F819023A
:1034E000B4F88830A4F85202013BA4F888300FF0F9
:1034F00045FA03B0BDE8F04312F0D2B940F2FF1133
:103500003020FCF7BFFF00BFD0F81401704700BFA8
:103510002DE9F04385B000230322CDE90033FF26D7
:103520008DF806206846FDF78FFF044620BB009DFE
:1035300095F83831002BF5D085F8606101212846D7
:1035400018F054FB95F83831002BEBD095F81001AA
:1035500012F026FF95F8100113F046FB95F81001C4
:1035600012F0B4FB002840D085F838416846FDF7DA
:103570006BFF04460028DAD0DFF88480012388F846
:103580000830002502264FF6FF771EE0029B03B3AA
:1035900093F81C22202A1CD01888B8421FD0022180
:1035A000FDF718FF814628B390F81C0212F0F8FED0
:1035B00099F81C0213F018FB99F81C0289F80442D0
:1035C00012F084FB202389F81C32CDE902558DF8D6
:1035D0000E6002A8FDF738FF04460028D6D000236D
:1035E00088F8083005B0BDE8F08340F2EB113020D8
:1035F000FCF748FF4FF49B713020FCF743FF00BFFE
:10360000F00C0020054B0022012142F210705A728A
:10361000588119701A72FFF77BBF00BFF00C0020B1
:103620002DE9F84390F83831002B77D104468846CD
:1036300001465648154603F0FF0712F013FB2028F9
:1036400006466BD05822394604F5887014F0E8F825
:1036500084F81061C4F81481FF2384F83831B8F17C
:10366000000F06D009F000FB00F00700013088F8D9
:10367000F40102234FF00008A4F8483184F8408197
:1036800010F0D2FC00F19E062046B6B218F062FAA5
:10369000002847D016F09FF900F5CD6189B2284681
:1036A00010F070FC2844C4F8440118F061FE301892
:1036B00041F100014FF00109C4F85001A4F826803F
:1036C000C4F8541184F81891204618F059FA0028CB
:1036D00046D04946204618F0BEF96FF49C631D445D
:1036E0002D1AC4F81C514FF0FF326FF00043C4E9AB
:1036F000562394F8100104F5A07112F0FFFB002886
:103700003FD0D4E954232046C4E94A23C4E94C23DA
:10371000002118F06BFA3846BDE8F8830C273846CC
:10372000BDE8F8830146204618F095F9DFF860807F
:10373000E530C4F84401B8F80A0008B1E08CB8B923
:10374000064418F015FE361841F10001C4E9546131
:10375000002DC8D0AE1941F10001C4E95661C8E797
:10376000484618F0E8FAE53D2D1AC4F81C51BAE7AE
:1037700009F07AFAB8F80A30B0FBF3F202FB130052
:10378000DEE740F2CD113020FCF77CFE81270000FF
:10379000F00C002090F838310BB90020704710B5BC
:1037A0000446FF2380F86031012118F01FFA94F8D5
:1037B00038310BB9002010BD94F8100112F0F0FD63
:1037C00094F8100113F010FA94F8100112F07EFA38
:1037D00020B1002384F83831002010BD40F2EB11F5
:1037E0003020FCF74FFE00BF014B5872704700BFFE
:1037F000F00C002090F8602182B910B502F0FF04AF
:1038000090F8182112B90122104610BDD0E94731B5
:103810009942F9D90BF04EFA2246F5E700221046FC
:10382000704700BF08B50EF0A7FC044BDA6882426F
:103830002ABF187A002080F0010008BDF00C00209B
:1038400008B540F2FF1117F063F9B0F5296F28BFF2
:103850004FF4296080B208BD90F8D331002B75D1A8
:10386000F0B503F0FF0590F80432032B85B0044651
:1038700001D005B0F0BD18F07BFDD4E98E23801A8D
:1038800061EB0301012871F10003F2DB6FF001032A
:10389000834275EB01035CDBE369B4F88820002BFD
:1038A00055D0B0FBF3F080B2531C184480B2A4F89A
:1038B0001402B4F81422B4F8CC319B1A1BB2002BBA
:1038C000D7DD94F81C0212F06BFD0028D1D0FF2345
:1038D00084F81932B4F88850B4F8C220B4F8C03073
:1038E000214F1544013DED1A3B68ADB20DF10E06B6
:1038F0006BB1B4F81412013989B2002220469847FE
:10390000B4F8143210FA83F39BB2A4F81432B4F86A
:103910001432EB1A1B04ACD4B4F81412009689B21A
:10392000002301222046FFF725F80028A1D0012816
:1039300014D1B4F81432BDF80E2012FA83F39BB2FE
:10394000A4F814323B68002BD3D1E0E77047184647
:10395000AAE740F2C7513020FCF794FD40F20E6117
:103960003020FCF78FFD00BF740000202DE9F043EC
:10397000044683B0062900F22B81DFE801F004261B
:1039800013232C338C00D0E98E23D0E9900182429E
:103990008B41C0F0B180914B1B7A03F0FF02002BEA
:1039A00000F09B80042384F804320EF0E7FF11F04E
:1039B00077FFB4F88820A4F816220023A4F8523226
:1039C00084F8193203B0BDE8F083032380F8043291
:1039D00003B0BDE8F0830EF0FDFBC4E9900103B035
:1039E000BDE8F08300881121FDF7F4FC94F87530F0
:1039F000002800F0DC80022B00F0D78066D8012B75
:103A000008BF0A3040F0DE80808840F245178742C8
:103A100034BFC01B0020D4F80C52E369DFF8BC911E
:103A20002A18934284BF5B1B1D1A99F8093098BF6E
:103A300000251BB9E36B9D4228BF1D4604F13C00E5
:103A4000D4F8D86116F0C1FF06EB0008022012F08E
:103A50002BFFA5EB080525EAE575854228BF05463D
:103A60000221284612F088FF00B9A84401233A46F3
:103A70004146204617F032F8E269D4F8D831C9F847
:103A80000C00D01812F0A8FE00289BD140F28A3119
:103A90003020FCF7F7FC90F8755028460FF0D4FB67
:103AA000033D4F4900F55F40012D00F14100A1FBAE
:103AB000003094BF2821002101EB901101228031B8
:103AC000204603B0BDE8F04317F019B8033B012BC3
:103AD00078D8408C40F26D1799E7B4F8CC11009279
:103AE00001232046FEF746FF00283FF45EAF40F278
:103AF000DC613020FCF7C6FC94F81A32002B3FF44E
:103B00004AAF94F80432032B7FF445AF94F87580E4
:103B100015F061FF94F8C3310B2B57D8314AD4F814
:103B2000406232F81330D4F8D891C51803F5C86351
:103B30009FB2D4E98E234046B61A0FF07DFBA8F160
:103B40000302012AADB2A9EB000939D940460FF0B2
:103B50007BFB234B00F52342A132A3FB02239B09ED
:103B6000A9EB0303A3F174025208D43B9D3205FB79
:103B700003F3B3FBF7F36033A2EB53018E424FEA3A
:103B8000530302D313449E4201D910F03DFAE06979
:103B9000294610F0F7F994F87E3003B10230002383
:103BA000C4F80C0284F81A32F5E614302CE740F21F
:103BB0006D17033B40F24512012B88BF17462AE7D9
:103BC0006523CDE7CD21B420FCF75CFCFEF7D2FDE8
:103BD0004FF4F3613020FCF755FC00BFF00C0020DF
:103BE000D34D621068780200012A70B5064609D0EC
:103BF000022A14460D461ED04AB140F2C27130204E
:103C0000FCF740FC0EF0B8FAC6F8540270BD0EF096
:103C1000B3FA224601462846FFF728FC0F4995F8DB
:103C20001001324610F09AFB0028EFD140F2AB7140
:103C30003020FCF727FCD0F8541201222846FFF769
:103C400015FC064995F81001324610F087FB002854
:103C5000DCD140F2BC713020FCF714FC11320000C2
:103C6000F8B5044651B101295BD1002380F8183121
:103C70000EF084FEBDE8F84011F012BEC58C002D98
:103C800047D12046D4E94A7617F026FF401941F182
:103C90000001C01946EB010100220223C4E95401CE
:103CA000C4E94A0184F84021A4F8483194F860310D
:103CB00003F0FF01002BDBD1D4E956026FF0004383
:103CC0009A4208BFB0F1FF3F0CD194F8100104F5FF
:103CD000A07112F013F90028CAD140F2FB61302024
:103CE000FCF7D0FB2046D4E9545617F0B4FED4F8C4
:103CF0005831D4F85C215B1B00F1E50062EB060251
:103D00001B1A62F10002002ADFDA20460AF0D2FF15
:103D1000AEE708F091FFE58CB0FBF5F303FB15056A
:103D2000AFE740F2D2713020FCF7ACFB90F83801DD
:103D3000003818BF01207047014B5881704700BF01
:103D4000F00C00200B46062203F8032BB0F809C044
:103D5000C27AA1F803C09A70704700BF08B54FF44B
:103D60002E713220FCF78EFB10B582B090F8DE3059
:103D700073B903F0FF02ADF804209DF804209DF80C
:103D80000530002062F3070063F30F2002B010BD7E
:103D90000C46363804F052F9182204232270ADF88C
:103DA0000430EAE770B5002860D0437A0D46044637
:103DB000002B3AD040890021FDF70CFB0646002875
:103DC00059D0008807F056FE30880021FDF718FB17
:103DD000002855D194F8546094F8A6302BB194F88B
:103DE000A7301E43002384F8A630204604F026F9AD
:103DF000B3072BD12B46132203F8032B04F109023E
:103E00002934166850689168D2F80CC0C3F80CC009
:103E10001032A2421E605860996003F11003F0D185
:103E2000117819700022AA7170BD036DD0F80E20B0
:103E3000C3F80320428AA3F80720427B036D12F0E7
:103E4000FD0F14BF012200229A70C3E7002226F062
:103E5000040684F854601146204604F071FF0028DF
:103E6000C8D140F221313220FCF70CFB40F2013185
:103E70003220FCF707FB40F20D313220FCF702FB49
:103E800040F211313220FCF7FDFA00BF044B1B68F1
:103E90000022A3F8212183F8232183F870207047A2
:103EA000000D002008B508F041FB034B18700EF020
:103EB000C5FC032008BD00BF1000002008B508F0B5
:103EC00035FB024B02461A70012008BD100000208D
:103ED0002DE9F041064615461C46A1B1B3681BB159
:103EE0002DB12846BDE8F0810120BDE8F081002C0D
:103EF000F7D01749B27C0968BDE8F04191F841005C
:103F0000423115F0EFBF124F396891F85A2091F8FD
:103F10007E0001F15B03783115F0E4FF7B683A68BD
:103F20005B79082B03D092F84E1099420DD00021F6
:103F300092F85630012BD1D023B90028CED10029D8
:103F4000CCD1D2E70020BDE8F0810121F0E700BF2D
:103F5000000D002038B5114C20686C3003F06CFA6D
:103F6000656803F019FA63682860186858B103F0AF
:103F700041FA68B10EF074FD00200EF01BFE63687C
:103F800004221A7138BD40F2EC413220FCF77AFA73
:103F900040F2EE413220FCF775FA00BF000D002020
:103FA00008B508F0C3FA0449044B024648681A7081
:103FB00003F0B4FA012008BD000D0020100000201D
:103FC000F0B5524C236800221F6D5A72FA690E46F2
:103FD00039885981054641F27071A2F57A7088429C
:103FE00083B040F286804A49A1FB0212C2F38F22BD
:103FF0001A84BA8C5A84FA8C9A844FF47F42DA84F9
:104000004FF6FF721A85002D69D00121304616F057
:10401000A8FA3278D209236893F8481009B1002A27
:104020003DD1207B002108285961198343D003F139
:104030000E0203F10D0108F013F8002861D0236887
:104040005A7B42F002025A7303F11A07002D40D145
:1040500003F1780002683A608288BA8093F95810B8
:10406000186D08F047FA20682A4916F022FC2368E8
:1040700029491A6D1088A3F8330092F8962083F826
:10408000352003F12A0016F01DFC2068022105F0FE
:1040900007F820686C3003F0CFF903B0F0BD427927
:1040A00002F0C002402ABCD102685A618288207B9B
:1040B0001A830828BBD193F87E00996F5873C3F810
:1040C0000E10B3F87C0058820021C3F81A10D9836F
:1040D000C4E70021304616F044FA2368BAE7A06826
:1040E000694616F0F8F8A3681A786846C2F3801299
:1040F00091E70A49A1FB0212920902F5506292B2BD
:1041000076E741F2F7313220FCF7BCF9000D0020D0
:104110005917B7D1A53D0000453D0000D34D6210B1
:1041200008B540F292313220FCF7ACF910B50478B2
:104130008CB004F00F04224602A903F091FC08F0B1
:10414000F5F9234A042C107002D003200CB010BDE6
:10415000204C0399236891F800E093F878C0E64575
:10416000F3D191F801E093F879C0E645EDD191F8EB
:1041700002E093F87AC0E645E7D191F803E093F8BE
:104180007BC0E645E1D191F804E093F87CC0E645B8
:10419000DBD191F805C093F87D108C45D5D193F80B
:1041A0007E309DF819109942CFD17F280DD0009014
:1041B0004FF07F0C606882F800C0237C227B02A94C
:1041C00003F0BAFB03200CB010BDFFF7A9FF00BF3E
:1041D00010000020000D00202DE9F04F044687B0AC
:1041E00006290BD8DFE801F0B030100A0A0A0400F3
:1041F000AC4D68688379002B40F0BD800EF01EFB4B
:10420000032007B0BDE8F08F0EF018FBA54A136835
:1042100093F854108F07F3D0506881790029EFD0BC
:10422000A14D95F900107F2900F0E6810291127BE3
:1042300001922146FF227F240092423302222C70F9
:1042400003F0D2FA0320DCE7964DA27C2968686867
:1042500091F8483090F806A090F80790012A83F072
:10426000010B00F0B480002691F8542012F00403F2
:1042700000F0B78091F84D70002F00F0B28091F8F7
:104280004E70082F40F0AF8091F841704FF0000859
:1042900038467BB3626891F85BC092F800E0E6456F
:1042A00000F04581002305936A685279082A06D0F8
:1042B000059B91F84EC0944508BF01230593B8F1C2
:1042C000000F40F0ED80BBF1000F40F02A81404626
:1042D000B9F1000F09D02B6893F85630012B02D0AA
:1042E0001BB9059B0BB1002843D10EF0A7FA2B6830
:1042F00093F85420930783D00EF0A0FABAF1000F80
:104300003FF47EAF2968A36891F84100A27C423156
:1043100015F0E8FD18B9B8F1000F00F04581624EC4
:1043200096F900307F2B00F0678102932B7BCDE95B
:104330000073D5E9003021467F24012242333470D6
:1043400003F052FA03205CE7564D2B68686893F837
:104350005420570734D5C279002A57D0626893F8A1
:104360005B1016788E4200F0B78093F85620012A31
:104370001CD10A2045E72B6893F85420960773D583
:10438000494A92F900107F2900F0368102912146B6
:104390002C7B0194FF2400947F2442331470062266
:1043A00003F022FA00232B7409202AE793F84E30F9
:1043B000082B02D042799A42DBD00EF03FFA6868AF
:1043C00083793BBBC379002B7FF41AAF16E7A26851
:1043D000567906F0C006A6F14006B6FA86F67609CA
:1043E00042E747794DE7384607F048FD002818BFF7
:1043F0008346002E40F0C680296891F8417091F8FC
:104400005420B046384602F0040342E78379002B7B
:104410003FF4F4AE2B6893F85420960746D4D007A7
:104420007FF5EEAE510700F1E0801F4B93F90020BD
:104430007F2A00F0E18002922A7B0192FF22009203
:104440007F2018702B68686821464233002203F0F1
:10445000CBF903206B68DA79002A7FF4D2AE9B791E
:10446000002B7FF4CEAEC9E6D1077FF5C7AE530768
:1044700000F1B8800C4B93F900207F2A00F0BC803B
:1044800002922A7B0192FF2200927F201870D5E9C8
:10449000003021464233062203F0A6F90320B0E69D
:1044A000012015E7000D002010000020534A92F96A
:1044B00000107F2900F0A080029121462C7B0194FE
:1044C000FF2400947F2442331470002203F08CF9FF
:1044D00001232B740920BDE7567893F85C108E42B7
:1044E0007FF443AF967893F85D108E427FF43DAF32
:1044F000D67893F85E108E427FF437AF167993F832
:104500005F108E427FF431AF517993F86020914271
:104510007FF42BAF617C93F85A2091427FF425AF52
:1045200027E7A368A27C423115F0DCFCD0E692F8C4
:1045300001E091F85CC0E6457FF4B4AE92F802E089
:1045400091F85DC0E6457FF4ADAE92F803E091F8D6
:104550005EC0E6457FF4A6AE92F804E091F85FC035
:10456000E6457FF49FAE92F805C091F8602094452F
:104570007FF498AE637C91F85A209A1A53425341C3
:10458000059391E6A168384607F05AFE29688046EF
:1045900091F8542091F84100B8F1000F28D040F074
:1045A000020702F0040374E62B6893F85520023AE0
:1045B000012A3FF625AE002E3FF422AE0F4E96F9AB
:1045C00000207F2A18D002922A7B68680192214637
:1045D000FE227F24009242330122347003F004F95A
:1045E00003200EE60EF02AF944E70EF027F91CE747
:1045F000074602F004034CE6FFF792FD100000208E
:1046000010B50E4A5368197902290DD9197908296C
:104610000FD81B79526903F180439268033BBDE8D0
:10462000104052F8233018474FF4A5513220FBF7C1
:1046300029FF41F2A1413220FBF724FF000D0020A9
:1046400038B5194D6B681B79022B28D82B68027C72
:1046500083F8A420C16899661A44044692F824217C
:1046600083F820214268C3F88820037A022B0ED0F9
:104670000DF06EFE0EF0ECFA0DF020F80B480EF087
:10468000D9F90B480EF0D0F90A480DF095FF637C7C
:1046900023B12B685B6E0BB101221A6038BD40F666
:1046A000F3013220FBF7EEFE000D00208000002019
:1046B00055555500D6BE898E70B53B4C63681A7946
:1046C000032A064631D01A79042A2ED0226892F89D
:1046D000542092072ED1A568002D42D0236893F86C
:1046E0005430002B42D03EB1284615F0FEFF30BBBF
:1046F000284616F015F810BB63681A79022A3FD9CC
:104700001A79082A41D81B79626903F180435269FA
:10471000033B52F8233098470C282CD86369DB6898
:10472000BDE8704053F820301847186802F062FE68
:104730000546D1E7186802F05FFE0546CCE76368DE
:104740001A79022A26D91A79082A28D81B79626987
:1047500003F180431269033B284652F823309847FF
:10476000DAE741F2A8313220FBF78CFE41F2AE319C
:104770003220FBF787FE41F2C1313220FBF782FE87
:1047800041F28E313220FBF77DFE41F28F31322033
:10479000FBF778FE41F22E313220FBF773FE41F237
:1047A0002F313220FBF76EFE000D002038B5224D70
:1047B0002C6894F84830B3B3D4E920126FF000436A
:1047C0009A4208BFB1F1FF3F2DD017F0D1FDD4E9D7
:1047D0002023904271EB030325D32C6894F84830D2
:1047E00013BB07F037FC054617F0C2FD6B015B1BDE
:1047F0004FEAD56262F10002520242EAD3525B02F2
:104800005B1942F1000C4FEA8C1E9A014EEA936E3E
:10481000D31A6EEB0C025B1942F100021B1842EB3B
:104820000101C4E9203138BD012007F0D5FC002882
:10483000F9D02C68D5E700BF000D00202DE9F04726
:104840001A4B93F90090B9F17F0F84B02CD0184C1B
:1048500067687F221A703B79032B80460E461AD078
:104860003B79062B0CBF4FF0030A4FF0010A236877
:1048700003F142050DF05AFC2B46257B0090CDE953
:10488000029A324641463846019502F097FE28B911
:1048900004B0BDE8F0874FF0000AE8E7606804B0B4
:1048A000BDE8F04702F0FABDFFF73AFC1000002027
:1048B000000D002038B505460C4606F077FF42078C
:1048C00004D4A37803F0E003402B0DD006F06EFF74
:1048D000830704D4A37803F0E003202B04D02378CB
:1048E00003F03F03242B01D9002038BD0DF024FC38
:1048F00094F9003094F802C06278002B0CF01F038A
:10490000ACBF1E214FF4967142EA032301FB03F36F
:104910001A1AB2F5877FE7D39842E5D8054A23886B
:104920001068A0F8213180F823C12946BDE838403D
:1049300003F006BC000D00202DE9F047344E7568E9
:10494000AB7984B06BB3D6F800A09AF895300446E2
:10495000894633B90378002B0CBF012302238AF860
:10496000953028790628C3B23ED0072B14BF4FF0EC
:1049700001084FF00208274890F900707F2F45D0BA
:104980007F2303700DF0D2FB317B00900191CDE9C4
:1049900002780AF142034A462846214602F00EFEFA
:1049A00020B90025284604B0BDE8F087657815F0E9
:1049B00010051CD0A1690220FFF77CFF0546E8B175
:1049C0003268002382F896306369DBB15978C1F30D
:1049D000031182F8971059781B7801F00F0143EA10
:1049E0000123A2F89830DDE74FF00308C3E77068B1
:1049F00002F054FD284604B0BDE8F087706802F06C
:104A00008DFDCFE7FF2382F89730CBE7FFF788FBD8
:104A1000000D00201000002010B504468AB007F0F9
:104A200085FD2378184A03F00F03072B107002D07E
:104A300001200AB010BD6946204603F0ABF8684675
:104A400003F094F99DF80030002BF1D19DF801306E
:104A5000DB07EDD50D4C019923689DF8110093F803
:104A60007E20783315F03EFA0028E1D0206801213D
:104A7000A03014F07FFFFF216846FFF75DFF00289C
:104A8000D6D00220D5E700BF10000020000D002086
:104A90002DE9F04304468BB007F048FD2378424AE5
:104AA00003F00F03082B107004D0012528460BB02B
:104AB000BDE8F0836946204603F004F89DF80050F5
:104AC000002DF2D19DF8013003F00303032BECD14C
:104AD000364F3E6896F84D306BB396F84E807B7B30
:104AE0006BBB96F87E2001999DF8110006F17803C2
:104AF00015F0F8F90028D8D096F848203E6896F8C6
:104B000041904236002A3ED19DF8120002990128B8
:104B100027D033464A4615F0E5F90028C5D0386855
:104B20000121A03014F026FF7B7BABBB2146012086
:104B3000FFF746FABAE77B6893F80580CFE715F0F0
:104B400015FA08288146CCD0387396F87E20019952
:104B50009DF8110006F1780315F0C4F9C145CBD0DA
:104B6000C8E74B7903F0C003402BD2D133464A4605
:104B700015F0B8F90028D2D10299404607F060FB41
:104B80000028CCD191E7404607F094FB00281CBFD9
:104B900006464FF00109B7E70EF05AF80CF08EFD0B
:104BA00000237B73C2E700BF10000020000D00202F
:104BB0002DE9F04FDFF8E8A0847C9346DAF8002076
:104BC00092F84870012C83B006468946984687F0D3
:104BD000010738D000249AF80D502346E5B192F829
:104BE0005410490721D47268A2B3DAF80420557929
:104BF000082D22D02846019307F040F9019B002898
:104C000018BF0746EBB19AF80F307BB315F0B8F92F
:104C1000002305468AF80F308BF8005089F80040D1
:104C200088F8007003B0BDE8F08F92F84D100029AD
:104C3000D9D092F84E50082DDCD113B19AF80E104D
:104C4000D1B10025E8E783685B7903F0C003402B0E
:104C5000C0D1C0E7DAF804200193106802F0E2FE48
:104C6000019B0028C1D1002BEBD0E7E72846B168B3
:104C700007F0E6FA0546CFE7B068019107F008FAB9
:104C800005468AF80D000028C6D015F06FF90828EF
:104C9000019903D0DAF804305871BDE70D46BBE73F
:104CA000000D002008B5054B586802F0F7FB07F02F
:104CB0003DFC034B02461A70012008BD000D002088
:104CC000100000202DE9F843794C0546A0682768BC
:104CD0000023038088460DF0FDFE0646002840D0E4
:104CE000032D51D0052D59D0A068BB6FC0F80930F5
:104CF000B7F87C30A0F80D3097F87E1015F0FFFA69
:104D0000236893F8482093F8418003F14207A2B941
:104D1000A0683B68C0F80330BB88A0F80730414664
:104D200015F0E0FA634BD3F80431002B40F0BA8061
:104D3000052D1CD03046BDE8F88393F85420520767
:104D400005D593F84D2012B193F84E0001E0636849
:104D5000587907F0AFFA00281CBF07464FF001084A
:104D6000D6E7032007F092FE3046BDE8F8832368BB
:104D700039681A6DC2F80A10B988D1811B6D83F8A1
:104D800009803046BDE8F883A0680C23437003789F
:104D900023F00F0343F003030370A6E7D4F8089051
:104DA000226899F8001021F02F0141EA481141F0E2
:104DB0000501222389F8001089F80130136D1B6A60
:104DC000C9F80F30116D8B6A89F81330180A1B0C63
:104DD00089F8140089F8153091F87E30088E002B80
:104DE0004CD1354BA3FB00C0D1F82CC0A3FB0CC3A6
:104DF000800AC3F38F2389F817301B0A89F816003D
:104E000089F81830CB6941F27070A3F57A7C84453B
:104E100040D92948A0FB0303C3F38F2389F8193035
:104E20001B0A89F81A308B8C89F81B301B0A89F809
:104E30001C30CB8C89F81D301B0A89F81E30D1F844
:104E40009730C9F81F3091F89B3089F82330136DE3
:104E500099F8242093F8A23022F01F0203F01F03D8
:104E6000134389F8243006F0C7FC99F8243003F086
:104E70001F0343EA401389F8243035E70F4BA3FBA7
:104E800000C0D1F82CC0A3FB0CC3C0F34710C3F380
:104E90004F13B0E70A48A0FB03039B0903F55063D7
:104EA0009BB2BBE740F234613220FBF7EBFA00BF64
:104EB000000D0020001000405917B7D11F85EB519D
:104EC000D34D621038B5154C236893F854309B07C6
:104ED00018D1A568E5B12368FF2093F820110DF0E3
:104EE00099F928460DF0BCFD236893F82031033B67
:104EF000012B94BF282000200DF05CFE6368072280
:104F00001A7138BD6368186802F076FA0546E1E761
:104F100040F213513220FBF7B5FA00BF000D00201C
:104F200038B51E4C23680E2093F820110DF072F94D
:104F3000236893F854309B0724D1A56845B32846CD
:104F40000DF08EFD236893F82031033B012B94BFB5
:104F5000282000200DF02EFE2368681D93F82051B4
:104F600007F0C4F8607348B1033D012D94BF552587
:104F700050250CF085FB28460DF05EFE6368082284
:104F80001A7138BD6368186802F036FA0546D5E72D
:104F90004FF4A0613220FBF775FA00BF000D00202E
:104FA00070B50D4DD5E9000302221A7103F0F0FE31
:104FB00000B170BD2E68044606F16C0002F0AEFA36
:104FC000A6F8214186F8234186F870402868BDE89C
:104FD000704004F03BB800BF000D002010B50A4C33
:104FE00007F0A4FA094A637B10701BB90DF026FC88
:104FF000032010BD0DF02CFE0CF060FB002363734A
:105000000DF01CFC032010BD000D0020100000203E
:1050100070B52D4C236893F8232105465F2A93F839
:1050200021019CBF5109294A00F03F0094BF565C02
:1050300000260DF0CBFA236893F958000DF0B6FA6C
:10504000EDB123683246996E01200DF09FFB236875
:1050500093F89630022B0CBF4020FF2031460DF014
:10506000D9F8236893F8542092070ED193F895301D
:10507000A568A3B12846BDE870400DF0F1BC3246EA
:10508000732101200DF082FBE1E76368186802F0EC
:10509000B3F9236893F895300546002BEAD1681DD3
:1050A00007F024F860730028E4D0033E012E94BF7B
:1050B000552450240CF0E4FA20460DF0BDFD28469E
:1050C000BDE870400DF0CCBC000D002080780200DF
:1050D000F0B52E4C236893F823215F2A9EBF510917
:1050E0002B4A575C9A6E83B0064688BF0027002A79
:1050F00040D1D3F888000DF029FD256895F854308B
:105100009A0703D595F89620022A2AD05B0724D463
:1051100063681868CEB902F085FC636806461868B3
:1051200002F086FC024605F19A00256895F8963053
:1051300095F820510095314602F0C0FD2268002309
:1051400082F82071A37303B0F0BD02F07DFC01462C
:1051500005F19A0002F0A8FDF0E795F89630012BD2
:10516000D6D1FB1E012B0AD9394600200DF08AFD4D
:105170002568CDE70120FFF74BFF2368B9E795F8D5
:105180005930012B14BF39460321EEE7000D0020F2
:105190008078020010B50B4C637B63B9A1680020D6
:1051A000FEF70EFF23680022A3F8212183F82321B4
:1051B00083F8702010BD0DF04BFD0CF07FFA00233A
:1051C0006373EBE7000D002010B50F4C637B9BB9B8
:1051D000D4E9003000224FF0010C80F804C003F144
:1051E0006C00A3F8212183F8232102F025F920681F
:1051F000BDE8104003F02ABF0DF02AFD0CF05EFA66
:1052000000236373E4E700BF000D00202DE9F04F99
:105210000729044687B040680D46904648D10028CB
:105220007CD0637C012B00F0BE80AC4E7368587953
:10523000082857D004AA0DF10F0106F011FF00282D
:1052400000F056819DF80F0004A916F008F9814678
:10525000316891F854309F0740F0B28077684FF082
:10526000000A87F806A091F8543013F0040376D1B1
:10527000FB719B4B1B6823B141462046984738720F
:105280007768636843B13268617C82F87E10196880
:1052900091679B88A2F87C303B7A002B00F02D812F
:1052A0000123A06808B1072D2ED007B0BDE8F08F0C
:1052B000002800F09280637C012BB6D1437903F083
:1052C000C003402BB1D1854E737B002B75D077681E
:1052D00014F04CFE736878715879307301230828F4
:1052E000B373A7D16168607C16F0B9F87268616821
:1052F00081460532607C06F0E9FD03460028A7D10F
:105300007768F8803872CCE779790829CDD0002BFE
:10531000CBD006F0DBFE0123F373C6E76F4E316896
:10532000002A5DD091F8543013F0030996D07768C5
:1053300091F84CA097F806B08146BBF1000F75D0EC
:105340006368002B41D1386802F06CFB002800F044
:10535000BB804B464FF00109D6E900173AE0062D15
:1053600091F84D3003D8002B82D14B4680E797F857
:1053700007A0082D65D8B8F1000F00F09780BAF1AA
:10538000000F5ED06268002AEDD13868019302F008
:1053900049FB18B9019B002B00F0A6804FF00109D2
:1053A00077684B4664E7437903F0C003402B7FF4F2
:1053B0003CAF4A4E737B002B45D17368587937E771
:1053C000062D91F84CA077682ED8BAF1000F7FF423
:1053D00048AF4B46CA46994643E7404E814637E7B9
:1053E00091F85430706813F0030218BF012213F0D3
:1053F0000403827105D02378A3F10103B3FA83F388
:105400005B09C37191F89430002B3FF44EAF3368C1
:10541000D3F89000503016F02CF800287FF445AFF8
:10542000736801221A7240E7082D1CD9002213F07C
:105430000403BA713FF41CAF91F84D3097F807A000
:1054400097E7002314E7B8F1000F7FF440AF33680B
:1054500093F8201101297FF43AAF06F019FE70731A
:105460000028AAD033E797F806B0B8F1000F7FF410
:1054700064AF6268002AA8D16278D0061CD50120EA
:10548000B8715807DDD591F84D3097F807A0019312
:10549000D30627D4386802F0C5FA019B00283FF4F0
:1054A0007AAFBAF1000F3FF476AF77E76268002A6F
:1054B0007FF459AF6278EAE7386802F0B3FA18B1BE
:1054C000BBF1000F7FF445AFBAF1000F7FF441AF9D
:1054D00006F0F6FC4B4681463EE700BF000D00207B
:1054E0007C0000200123C3E606F0EAFC814657E772
:1054F0004FF43A613220FAF7C5FFFB88003B18BF32
:105500000123CEE670B5194E8AB0054607F00EF8B5
:105510003368174A93F85430107013F0060F16D101
:105520002C7804F00F0422462846694602F098FAC7
:10553000214600226846FFF769FE21466846FEF7CD
:105540004BFE737B044643B920460AB070BD01226E
:10555000962100200DF02EF9E2E70DF079FB0CF01A
:10556000ADF80023204673730AB070BD000D002013
:105570001000002010B5104C606801F0CFFF637B75
:105580009BB9D4E9003000224FF0010C80F804C030
:1055900003F16C00A3F8212183F8232101F04CFFD3
:1055A0002068BDE8104003F051BD0DF051FB0CF038
:1055B00085F800236373E4E7000D002010B5114C5B
:1055C00006F0B4FF104A637B10709BB9D4E9003039
:1055D00000224FF0010C80F804C003F16C00A3F826
:1055E000212183F8232101F027FF2068BDE8104026
:1055F00003F02CBD0DF02CFB0CF060F8002363735E
:10560000E4E700BF000D00201000002010B5124C90
:10561000606801F083FF06F089FF104A637B107019
:105620009BB9D4E9003000224FF0010C80F804C08F
:1056300003F16C00A3F8212183F8232101F0FCFE83
:105640002068BDE8104003F001BD0DF001FB0CF037
:1056500035F800236373E4E7000D002010000020FC
:1056600010B506F063FF134C134B024620681A7006
:105670000021A03014F07EF9637B9BB9D4E900309F
:1056800000224FF0010C80F804C003F16C00A3F875
:10569000212183F8232101F0CFFE2068BDE81040CE
:1056A00003F0D4BC0DF0D4FA0CF008F800236373B7
:1056B000E4E700BF000D00201000002010B5154CDD
:1056C000606801F0EBFE06F031FF02462068124BE5
:1056D0000021A0301A7014F04DF9637B9BB9D4E916
:1056E000003000224FF0010C80F804C003F16C0080
:1056F000A3F8212183F8232101F09EFE2068BDE854
:10570000104003F0A3BC0DF0A3FA0BF0D7FF002369
:105710006373E4E7000D00201000002010B50021A5
:105720000320FFF7CFFA164C20B12068032102F0C6
:1057300007FDA8B9637BDBB9D4E9003000224FF044
:10574000010C80F804C003F16C00A3F8212183F858
:10575000232101F071FE2068BDE8104003F076BC03
:10576000012108460DF08EFA636809221A7110BDF6
:105770000DF06EFA0BF0A2FF00236373DCE700BFAD
:10578000000D002010B51D4CD4E900030C220121AE
:105790001A7103F085FC00210520FFF793FA20B170
:1057A0002068062102F0CCFCA8B9637BFBB9D4E9E0
:1057B000003000224FF0010C80F804C003F16C00AF
:1057C000A3F8212183F8232101F036FE2068BDE8EB
:1057D000104003F03BBC2368012093F820110DF02A
:1057E00051FA23681B6D012283F8962010BD0DF03D
:1057F0002FFA0BF063FF00236373D8E7000D00203E
:1058000070B5234C236893F823215F2A9EBF51096A
:10581000204A565C9A6E88BF00266ABBD3F888007F
:105820000DF094F9256895F854309A0703D595F84A
:105830009620022A17D05B0703D595F89630012BE6
:1058400011D06368186802F0FFF8014605F19A006C
:1058500002F02AFAD4E900130022A273062281F88A
:1058600020611A7170BDF31E012B0AD93146002048
:105870000DF008FA2568E4E70120FFF7C9FB23686B
:10588000CCE795F85930012B14BF31460321EEE7E0
:10589000000D00208078020038B5154C05212068E5
:1058A00002F04EFC48B12368012093F820110DF05E
:1058B000E9F963680B221A7138BD637B8BB9D4E9AF
:1058C000003000220125057103F16C00A3F82121AD
:1058D00083F8232101F0B0FD2068BDE8384003F0D3
:1058E000B5BB05460DF0B4F90BF0E8FE6573E6E7CD
:1058F000000D002010B598B991B11F4A536819796D
:1059000008292ED919790C2930D81B79526903F14D
:1059100080435268093BBDE8104052F823301847D5
:10592000154C606801F0FAFD637B9BB9D4E9003047
:1059300000224FF0010C80F804C003F16C00A3F8C2
:10594000212183F8232101F077FD2068BDE8104074
:1059500003F07CBB0DF07CF90BF0B0FE0023637309
:10596000E4E741F270413220FAF78CFD41F27141D7
:105970003220FAF787FD00BF000D002038B5234C18
:105980006368186801F036FD00283AD063680A227F
:1059900005461A712068002103F082FB22682B78EB
:1059A000126D92F8965005EA531505F00105052091
:1059B0002946FFF787F948B12068042102F0C0FBAF
:1059C00020B123681B6D83F8965038BD637B8BB97B
:1059D000D4E9003000220125057103F16C00A3F821
:1059E000212183F8232101F027FD2068BDE83840FC
:1059F00003F02CBB0DF02CF90BF060FE0023637359
:105A0000E6E74FF4AB613220FAF73CFD000D0020D1
:105A1000F0B52B4C236893F823215F2A9EBF5109D0
:105A2000284A575C9A6E83B088BF0027002A3AD173
:105A3000D3F888000DF08AF8256895F854309A0755
:105A400003D595F89620022A24D05B0703D595F854
:105A50009630012B1ED06368186801F0E3FF63687D
:105A60000646186801F0E4FF024605F19A00256831
:105A700095F8963095F820510095314602F01EF9C0
:105A8000D4E900130022A273052281F820711A7153
:105A900003B0F0BDFB1E012B0AD9394600200DF0E2
:105AA000F1F82568D7E70120FFF7B2FA2368BFE7CE
:105AB00095F85930012B14BF39460321EEE700BF9A
:105AC000000D002080780200F0B55B4C206883B0A8
:105AD0006C3001F0B1FC656801F05EFC6368286021
